:100000000C943E000C9448000C9448000C9448005A
:100010000C9448000C9448000C9448000C94480040
:100020000C9448000C9448000C9448000C94480030
:100030000C9448000C9448000C9448000C94480020
:100040000C9448000C9448000C9448000C94480010
:100050000C9448000C9448000C9448000C94480000
:100060000C9448000C9448000C9448000C944800F0
:100070000C9448000C9448000C94480011241FBEB6
:10008000CFEFCDBFDFE3DEBF0E944A000C948500B6
:100090000C94000088ED84BF809161008E7F809376
:1000A000610080912004806180932004809120046D
:1000B000886080932004809124048F7E80932404A0
:1000C00080912404886080932404809120048160BE
:1000D000809320048091240481608093240428E08C
:1000E00090E1809124048227809324048091240449
:1000F0008927809324043FE744E88EE13150404053
:0E0100008040E1F700C00000ECCFF894FFCF84
:00000001FF
